{
  "_format": "hh-sol-artifact-1",
  "contractName": "MiniNFT",
  "sourceName": "contracts/Mustache20.sol",
  "abi": [
    {
      "inputs": [],
      "stateMutability": "nonpayable",
      "type": "constructor"
    },
    {
      "anonymous": false,
      "inputs": [
        {
          "indexed": true,
          "internalType": "address",
          "name": "owner",
          "type": "address"
        },
        {
          "indexed": true,
          "internalType": "address",
          "name": "approved",
          "type": "address"
        },
        {
          "indexed": true,
          "internalType": "uint256",
          "name": "tokenId",
          "type": "uint256"
        }
      ],
      "name": "Approval",
      "type": "event"
    },
    {
      "anonymous": false,
      "inputs": [
        {
          "indexed": true,
          "internalType": "address",
          "name": "owner",
          "type": "address"
        },
        {
          "indexed": true,
          "internalType": "address",
          "name": "operator",
          "type": "address"
        },
        {
          "indexed": false,
          "internalType": "bool",
          "name": "approved",
          "type": "bool"
        }
      ],
      "name": "ApprovalForAll",
      "type": "event"
    },
    {
      "anonymous": false,
      "inputs": [
        {
          "indexed": true,
          "internalType": "address",
          "name": "previousOwner",
          "type": "address"
        },
        {
          "indexed": true,
          "internalType": "address",
          "name": "newOwner",
          "type": "address"
        }
      ],
      "name": "OwnershipTransferred",
      "type": "event"
    },
    {
      "anonymous": false,
      "inputs": [
        {
          "indexed": true,
          "internalType": "address",
          "name": "from",
          "type": "address"
        },
        {
          "indexed": true,
          "internalType": "address",
          "name": "to",
          "type": "address"
        },
        {
          "indexed": true,
          "internalType": "uint256",
          "name": "tokenId",
          "type": "uint256"
        }
      ],
      "name": "Transfer",
      "type": "event"
    },
    {
      "inputs": [
        {
          "internalType": "address",
          "name": "to",
          "type": "address"
        },
        {
          "internalType": "uint256",
          "name": "tokenId",
          "type": "uint256"
        }
      ],
      "name": "approve",
      "outputs": [],
      "stateMutability": "nonpayable",
      "type": "function"
    },
    {
      "inputs": [
        {
          "internalType": "address",
          "name": "owner",
          "type": "address"
        }
      ],
      "name": "balanceOf",
      "outputs": [
        {
          "internalType": "uint256",
          "name": "",
          "type": "uint256"
        }
      ],
      "stateMutability": "view",
      "type": "function"
    },
    {
      "inputs": [
        {
          "internalType": "uint256",
          "name": "tokenId",
          "type": "uint256"
        }
      ],
      "name": "getApproved",
      "outputs": [
        {
          "internalType": "address",
          "name": "",
          "type": "address"
        }
      ],
      "stateMutability": "view",
      "type": "function"
    },
    {
      "inputs": [
        {
          "internalType": "address",
          "name": "owner",
          "type": "address"
        },
        {
          "internalType": "address",
          "name": "operator",
          "type": "address"
        }
      ],
      "name": "isApprovedForAll",
      "outputs": [
        {
          "internalType": "bool",
          "name": "",
          "type": "bool"
        }
      ],
      "stateMutability": "view",
      "type": "function"
    },
    {
      "inputs": [
        {
          "internalType": "address",
          "name": "recipient",
          "type": "address"
        },
        {
          "internalType": "string",
          "name": "tokenURI",
          "type": "string"
        }
      ],
      "name": "mintInLoopNFT",
      "outputs": [],
      "stateMutability": "nonpayable",
      "type": "function"
    },
    {
      "inputs": [],
      "name": "name",
      "outputs": [
        {
          "internalType": "string",
          "name": "",
          "type": "string"
        }
      ],
      "stateMutability": "view",
      "type": "function"
    },
    {
      "inputs": [],
      "name": "owner",
      "outputs": [
        {
          "internalType": "address",
          "name": "",
          "type": "address"
        }
      ],
      "stateMutability": "view",
      "type": "function"
    },
    {
      "inputs": [
        {
          "internalType": "uint256",
          "name": "tokenId",
          "type": "uint256"
        }
      ],
      "name": "ownerOf",
      "outputs": [
        {
          "internalType": "address",
          "name": "",
          "type": "address"
        }
      ],
      "stateMutability": "view",
      "type": "function"
    },
    {
      "inputs": [],
      "name": "renounceOwnership",
      "outputs": [],
      "stateMutability": "nonpayable",
      "type": "function"
    },
    {
      "inputs": [
        {
          "internalType": "address",
          "name": "from",
          "type": "address"
        },
        {
          "internalType": "address",
          "name": "to",
          "type": "address"
        },
        {
          "internalType": "uint256",
          "name": "tokenId",
          "type": "uint256"
        }
      ],
      "name": "safeTransferFrom",
      "outputs": [],
      "stateMutability": "nonpayable",
      "type": "function"
    },
    {
      "inputs": [
        {
          "internalType": "address",
          "name": "from",
          "type": "address"
        },
        {
          "internalType": "address",
          "name": "to",
          "type": "address"
        },
        {
          "internalType": "uint256",
          "name": "tokenId",
          "type": "uint256"
        },
        {
          "internalType": "bytes",
          "name": "_data",
          "type": "bytes"
        }
      ],
      "name": "safeTransferFrom",
      "outputs": [],
      "stateMutability": "nonpayable",
      "type": "function"
    },
    {
      "inputs": [
        {
          "internalType": "address",
          "name": "operator",
          "type": "address"
        },
        {
          "internalType": "bool",
          "name": "approved",
          "type": "bool"
        }
      ],
      "name": "setApprovalForAll",
      "outputs": [],
      "stateMutability": "nonpayable",
      "type": "function"
    },
    {
      "inputs": [
        {
          "internalType": "bytes4",
          "name": "interfaceId",
          "type": "bytes4"
        }
      ],
      "name": "supportsInterface",
      "outputs": [
        {
          "internalType": "bool",
          "name": "",
          "type": "bool"
        }
      ],
      "stateMutability": "view",
      "type": "function"
    },
    {
      "inputs": [],
      "name": "symbol",
      "outputs": [
        {
          "internalType": "string",
          "name": "",
          "type": "string"
        }
      ],
      "stateMutability": "view",
      "type": "function"
    },
    {
      "inputs": [
        {
          "internalType": "uint256",
          "name": "tokenId",
          "type": "uint256"
        }
      ],
      "name": "tokenURI",
      "outputs": [
        {
          "internalType": "string",
          "name": "",
          "type": "string"
        }
      ],
      "stateMutability": "view",
      "type": "function"
    },
    {
      "inputs": [
        {
          "internalType": "address",
          "name": "from",
          "type": "address"
        },
        {
          "internalType": "address",
          "name": "to",
          "type": "address"
        },
        {
          "internalType": "uint256",
          "name": "tokenId",
          "type": "uint256"
        }
      ],
      "name": "transferFrom",
      "outputs": [],
      "stateMutability": "nonpayable",
      "type": "function"
    },
    {
      "inputs": [
        {
          "internalType": "address",
          "name": "newOwner",
          "type": "address"
        }
      ],
      "name": "transferOwnership",
      "outputs": [],
      "stateMutability": "nonpayable",
      "type": "function"
    }
  ],
  "bytecode": "0x60806040523480156200001157600080fd5b506040518060400160405280600781526020017f4d696e694e4654000000000000000000000000000000000000000000000000008152506040518060400160405280600881526020017f4d696e69206e6674000000000000000000000000000000000000000000000000815250816000908051906020019062000096929190620001a6565b508060019080519060200190620000af929190620001a6565b505050620000d2620000c6620000d860201b60201c565b620000e060201b60201c565b620002bb565b600033905090565b6000600760009054906101000a900473ffffffffffffffffffffffffffffffffffffffff16905081600760006101000a81548173ffffffffffffffffffffffffffffffffffffffff021916908373ffffffffffffffffffffffffffffffffffffffff1602179055508173ffffffffffffffffffffffffffffffffffffffff168173ffffffffffffffffffffffffffffffffffffffff167f8be0079c531659141344cd1fd0a4f28419497f9722a3daafe3b4186f6b6457e060405160405180910390a35050565b828054620001b49062000256565b90600052602060002090601f016020900481019282620001d8576000855562000224565b82601f10620001f357805160ff191683800117855562000224565b8280016001018555821562000224579182015b828111156200022357825182559160200191906001019062000206565b5b50905062000233919062000237565b5090565b5b808211156200025257600081600090555060010162000238565b5090565b600060028204905060018216806200026f57607f821691505b602082108114156200028657620002856200028c565b5b50919050565b7f4e487b7100000000000000000000000000000000000000000000000000000000600052602260045260246000fd5b61308080620002cb6000396000f3fe608060405234801561001057600080fd5b506004361061010b5760003560e01c8063715018a6116100a2578063a22cb46511610071578063a22cb465146102a4578063b88d4fde146102c0578063c87b56dd146102dc578063e985e9c51461030c578063f2fde38b1461033c5761010b565b8063715018a6146102425780638da5cb5b1461024c57806395d89b411461026a5780639e30e3f7146102885761010b565b806323b872dd116100de57806323b872dd146101aa57806342842e0e146101c65780636352211e146101e257806370a08231146102125761010b565b806301ffc9a71461011057806306fdde0314610140578063081812fc1461015e578063095ea7b31461018e575b600080fd5b61012a6004803603810190610125919061202f565b610358565b604051610137919061247b565b60405180910390f35b61014861043a565b6040516101559190612496565b60405180910390f35b61017860048036038101906101739190612081565b6104cc565b6040516101859190612414565b60405180910390f35b6101a860048036038101906101a39190611ff3565b610551565b005b6101c460048036038101906101bf9190611e99565b610669565b005b6101e060048036038101906101db9190611e99565b6106c9565b005b6101fc60048036038101906101f79190612081565b6106e9565b6040516102099190612414565b60405180910390f35b61022c60048036038101906102279190611e34565b61079b565b60405161023991906126f8565b60405180910390f35b61024a610853565b005b6102546108db565b6040516102619190612414565b60405180910390f35b610272610905565b60405161027f9190612496565b60405180910390f35b6102a2600480360381019061029d9190611f9f565b610997565b005b6102be60048036038101906102b99190611f63565b610a42565b005b6102da60048036038101906102d59190611ee8565b610a58565b005b6102f660048036038101906102f19190612081565b610aba565b6040516103039190612496565b60405180910390f35b61032660048036038101906103219190611e5d565b610c0c565b604051610333919061247b565b60405180910390f35b61035660048036038101906103519190611e34565b610ca0565b005b60007f80ac58cd000000000000000000000000000000000000000000000000000000007bffffffffffffffffffffffffffffffffffffffffffffffffffffffff1916827bffffffffffffffffffffffffffffffffffffffffffffffffffffffff1916148061042357507f5b5e139f000000000000000000000000000000000000000000000000000000007bffffffffffffffffffffffffffffffffffffffffffffffffffffffff1916827bffffffffffffffffffffffffffffffffffffffffffffffffffffffff1916145b80610433575061043282610d98565b5b9050919050565b6060600080546104499061294e565b80601f01602080910402602001604051908101604052809291908181526020018280546104759061294e565b80156104c25780601f10610497576101008083540402835291602001916104c2565b820191906000526020600020905b8154815290600101906020018083116104a557829003601f168201915b5050505050905090565b60006104d782610e02565b610516576040517f08c379a000000000000000000000000000000000000000000000000000000000815260040161050d90612658565b60405180910390fd5b6004600083815260200190815260200160002060009054906101000a900473ffffffffffffffffffffffffffffffffffffffff169050919050565b600061055c826106e9565b90508073ffffffffffffffffffffffffffffffffffffffff168373ffffffffffffffffffffffffffffffffffffffff1614156105cd576040517f08c379a00000000000000000000000000000000000000000000000000000000081526004016105c4906126b8565b60405180910390fd5b8073ffffffffffffffffffffffffffffffffffffffff166105ec610e6e565b73ffffffffffffffffffffffffffffffffffffffff16148061061b575061061a81610615610e6e565b610c0c565b5b61065a576040517f08c379a000000000000000000000000000000000000000000000000000000000815260040161065190612598565b60405180910390fd5b6106648383610e76565b505050565b61067a610674610e6e565b82610f2f565b6106b9576040517f08c379a00000000000000000000000000000000000000000000000000000000081526004016106b0906126d8565b60405180910390fd5b6106c483838361100d565b505050565b6106e483838360405180602001604052806000815250610a58565b505050565b6000806002600084815260200190815260200160002060009054906101000a900473ffffffffffffffffffffffffffffffffffffffff169050600073ffffffffffffffffffffffffffffffffffffffff168173ffffffffffffffffffffffffffffffffffffffff161415610792576040517f08c379a0000000000000000000000000000000000000000000000000000000008152600401610789906125d8565b60405180910390fd5b80915050919050565b60008073ffffffffffffffffffffffffffffffffffffffff168273ffffffffffffffffffffffffffffffffffffffff16141561080c576040517f08c379a0000000000000000000000000000000000000000000000000000000008152600401610803906125b8565b60405180910390fd5b600360008373ffffffffffffffffffffffffffffffffffffffff1673ffffffffffffffffffffffffffffffffffffffff168152602001908152602001600020549050919050565b61085b610e6e565b73ffffffffffffffffffffffffffffffffffffffff166108796108db565b73ffffffffffffffffffffffffffffffffffffffff16146108cf576040517f08c379a00000000000000000000000000000000000000000000000000000000081526004016108c690612678565b60405180910390fd5b6108d96000611274565b565b6000600760009054906101000a900473ffffffffffffffffffffffffffffffffffffffff16905090565b6060600180546109149061294e565b80601f01602080910402602001604051908101604052809291908181526020018280546109409061294e565b801561098d5780601f106109625761010080835404028352916020019161098d565b820191906000526020600020905b81548152906001019060200180831161097057829003601f168201915b5050505050905090565b61099f610e6e565b73ffffffffffffffffffffffffffffffffffffffff166109bd6108db565b73ffffffffffffffffffffffffffffffffffffffff1614610a13576040517f08c379a0000000000000000000000000000000000000000000000000000000008152600401610a0a90612678565b60405180910390fd5b60005b6014811015610a3d57610a29838361133a565b508080610a35906129b1565b915050610a16565b505050565b610a54610a4d610e6e565b83836113ee565b5050565b610a69610a63610e6e565b83610f2f565b610aa8576040517f08c379a0000000000000000000000000000000000000000000000000000000008152600401610a9f906126d8565b60405180910390fd5b610ab48484848461155b565b50505050565b6060610ac582610e02565b610b04576040517f08c379a0000000000000000000000000000000000000000000000000000000008152600401610afb90612638565b60405180910390fd5b6000600660008481526020019081526020016000208054610b249061294e565b80601f0160208091040260200160405190810160405280929190818152602001828054610b509061294e565b8015610b9d5780601f10610b7257610100808354040283529160200191610b9d565b820191906000526020600020905b815481529060010190602001808311610b8057829003601f168201915b505050505090506000610bae6115b7565b9050600081511415610bc4578192505050610c07565b600082511115610bf9578082604051602001610be19291906123f0565b60405160208183030381529060405292505050610c07565b610c02846115ce565b925050505b919050565b6000600560008473ffffffffffffffffffffffffffffffffffffffff1673ffffffffffffffffffffffffffffffffffffffff16815260200190815260200160002060008373ffffffffffffffffffffffffffffffffffffffff1673ffffffffffffffffffffffffffffffffffffffff16815260200190815260200160002060009054906101000a900460ff16905092915050565b610ca8610e6e565b73ffffffffffffffffffffffffffffffffffffffff16610cc66108db565b73ffffffffffffffffffffffffffffffffffffffff1614610d1c576040517f08c379a0000000000000000000000000000000000000000000000000000000008152600401610d1390612678565b60405180910390fd5b600073ffffffffffffffffffffffffffffffffffffffff168173ffffffffffffffffffffffffffffffffffffffff161415610d8c576040517f08c379a0000000000000000000000000000000000000000000000000000000008152600401610d83906124d8565b60405180910390fd5b610d9581611274565b50565b60007f01ffc9a7000000000000000000000000000000000000000000000000000000007bffffffffffffffffffffffffffffffffffffffffffffffffffffffff1916827bffffffffffffffffffffffffffffffffffffffffffffffffffffffff1916149050919050565b60008073ffffffffffffffffffffffffffffffffffffffff166002600084815260200190815260200160002060009054906101000a900473ffffffffffffffffffffffffffffffffffffffff1673ffffffffffffffffffffffffffffffffffffffff1614159050919050565b600033905090565b816004600083815260200190815260200160002060006101000a81548173ffffffffffffffffffffffffffffffffffffffff021916908373ffffffffffffffffffffffffffffffffffffffff160217905550808273ffffffffffffffffffffffffffffffffffffffff16610ee9836106e9565b73ffffffffffffffffffffffffffffffffffffffff167f8c5be1e5ebec7d5bd14f71427d1e84f3dd0314c0f7b2291e5b200ac8c7c3b92560405160405180910390a45050565b6000610f3a82610e02565b610f79576040517f08c379a0000000000000000000000000000000000000000000000000000000008152600401610f7090612578565b60405180910390fd5b6000610f84836106e9565b90508073ffffffffffffffffffffffffffffffffffffffff168473ffffffffffffffffffffffffffffffffffffffff161480610fc65750610fc58185610c0c565b5b8061100457508373ffffffffffffffffffffffffffffffffffffffff16610fec846104cc565b73ffffffffffffffffffffffffffffffffffffffff16145b91505092915050565b8273ffffffffffffffffffffffffffffffffffffffff1661102d826106e9565b73ffffffffffffffffffffffffffffffffffffffff1614611083576040517f08c379a000000000000000000000000000000000000000000000000000000000815260040161107a906124f8565b60405180910390fd5b600073ffffffffffffffffffffffffffffffffffffffff168273ffffffffffffffffffffffffffffffffffffffff1614156110f3576040517f08c379a00000000000000000000000000000000000000000000000000000000081526004016110ea90612538565b60405180910390fd5b6110fe838383611675565b611109600082610e76565b6001600360008573ffffffffffffffffffffffffffffffffffffffff1673ffffffffffffffffffffffffffffffffffffffff16815260200190815260200160002060008282546111599190612864565b925050819055506001600360008473ffffffffffffffffffffffffffffffffffffffff1673ffffffffffffffffffffffffffffffffffffffff16815260200190815260200160002060008282546111b091906127dd565b92505081905550816002600083815260200190815260200160002060006101000a81548173ffffffffffffffffffffffffffffffffffffffff021916908373ffffffffffffffffffffffffffffffffffffffff160217905550808273ffffffffffffffffffffffffffffffffffffffff168473ffffffffffffffffffffffffffffffffffffffff167fddf252ad1be2c89b69c2b068fc378daa952ba7f163c4a11628f55a4df523b3ef60405160405180910390a461126f83838361167a565b505050565b6000600760009054906101000a900473ffffffffffffffffffffffffffffffffffffffff16905081600760006101000a81548173ffffffffffffffffffffffffffffffffffffffff021916908373ffffffffffffffffffffffffffffffffffffffff1602179055508173ffffffffffffffffffffffffffffffffffffffff168173ffffffffffffffffffffffffffffffffffffffff167f8be0079c531659141344cd1fd0a4f28419497f9722a3daafe3b4186f6b6457e060405160405180910390a35050565b6000611344610e6e565b73ffffffffffffffffffffffffffffffffffffffff166113626108db565b73ffffffffffffffffffffffffffffffffffffffff16146113b8576040517f08c379a00000000000000000000000000000000000000000000000000000000081526004016113af90612678565b60405180910390fd5b6113c2600861167f565b60006113ce6008611695565b90506113da84826116a3565b6113e4818461187d565b8091505092915050565b8173ffffffffffffffffffffffffffffffffffffffff168373ffffffffffffffffffffffffffffffffffffffff16141561145d576040517f08c379a000000000000000000000000000000000000000000000000000000000815260040161145490612558565b60405180910390fd5b80600560008573ffffffffffffffffffffffffffffffffffffffff1673ffffffffffffffffffffffffffffffffffffffff16815260200190815260200160002060008473ffffffffffffffffffffffffffffffffffffffff1673ffffffffffffffffffffffffffffffffffffffff16815260200190815260200160002060006101000a81548160ff0219169083151502179055508173ffffffffffffffffffffffffffffffffffffffff168373ffffffffffffffffffffffffffffffffffffffff167f17307eab39ab6107e8899845ad3d59bd9653f200f220920489ca2b5937696c318360405161154e919061247b565b60405180910390a3505050565b61156684848461100d565b611572848484846118f1565b6115b1576040517f08c379a00000000000000000000000000000000000000000000000000000000081526004016115a8906124b8565b60405180910390fd5b50505050565b606060405180602001604052806000815250905090565b60606115d982610e02565b611618576040517f08c379a000000000000000000000000000000000000000000000000000000000815260040161160f90612698565b60405180910390fd5b60006116226115b7565b90506000815111611642576040518060200160405280600081525061166d565b8061164c84611a88565b60405160200161165d9291906123f0565b6040516020818303038152906040525b915050919050565b505050565b505050565b6001816000016000828254019250508190555050565b600081600001549050919050565b600073ffffffffffffffffffffffffffffffffffffffff168273ffffffffffffffffffffffffffffffffffffffff161415611713576040517f08c379a000000000000000000000000000000000000000000000000000000000815260040161170a90612618565b60405180910390fd5b61171c81610e02565b1561175c576040517f08c379a000000000000000000000000000000000000000000000000000000000815260040161175390612518565b60405180910390fd5b61176860008383611675565b6001600360008473ffffffffffffffffffffffffffffffffffffffff1673ffffffffffffffffffffffffffffffffffffffff16815260200190815260200160002060008282546117b891906127dd565b92505081905550816002600083815260200190815260200160002060006101000a81548173ffffffffffffffffffffffffffffffffffffffff021916908373ffffffffffffffffffffffffffffffffffffffff160217905550808273ffffffffffffffffffffffffffffffffffffffff16600073ffffffffffffffffffffffffffffffffffffffff167fddf252ad1be2c89b69c2b068fc378daa952ba7f163c4a11628f55a4df523b3ef60405160405180910390a46118796000838361167a565b5050565b61188682610e02565b6118c5576040517f08c379a00000000000000000000000000000000000000000000000000000000081526004016118bc906125f8565b60405180910390fd5b806006600084815260200190815260200160002090805190602001906118ec929190611c58565b505050565b60006119128473ffffffffffffffffffffffffffffffffffffffff16611c35565b15611a7b578373ffffffffffffffffffffffffffffffffffffffff1663150b7a0261193b610e6e565b8786866040518563ffffffff1660e01b815260040161195d949392919061242f565b602060405180830381600087803b15801561197757600080fd5b505af19250505080156119a857506040513d601f19601f820116820180604052508101906119a59190612058565b60015b611a2b573d80600081146119d8576040519150601f19603f3d011682016040523d82523d6000602084013e6119dd565b606091505b50600081511415611a23576040517f08c379a0000000000000000000000000000000000000000000000000000000008152600401611a1a906124b8565b60405180910390fd5b805181602001fd5b63150b7a0260e01b7bffffffffffffffffffffffffffffffffffffffffffffffffffffffff1916817bffffffffffffffffffffffffffffffffffffffffffffffffffffffff191614915050611a80565b600190505b949350505050565b60606000821415611ad0576040518060400160405280600181526020017f30000000000000000000000000000000000000000000000000000000000000008152509050611c30565b600082905060005b60008214611b02578080611aeb906129b1565b915050600a82611afb9190612833565b9150611ad8565b60008167ffffffffffffffff811115611b44577f4e487b7100000000000000000000000000000000000000000000000000000000600052604160045260246000fd5b6040519080825280601f01601f191660200182016040528015611b765781602001600182028036833780820191505090505b5090505b60008514611c2957600182611b8f9190612864565b9150600a85611b9e91906129fa565b6030611baa91906127dd565b60f81b818381518110611be6577f4e487b7100000000000000000000000000000000000000000000000000000000600052603260045260246000fd5b60200101907effffffffffffffffffffffffffffffffffffffffffffffffffffffffffffff1916908160001a905350600a85611c229190612833565b9450611b7a565b8093505050505b919050565b6000808273ffffffffffffffffffffffffffffffffffffffff163b119050919050565b828054611c649061294e565b90600052602060002090601f016020900481019282611c865760008555611ccd565b82601f10611c9f57805160ff1916838001178555611ccd565b82800160010185558215611ccd579182015b82811115611ccc578251825591602001919060010190611cb1565b5b509050611cda9190611cde565b5090565b5b80821115611cf7576000816000905550600101611cdf565b5090565b6000611d0e611d0984612738565b612713565b905082815260208101848484011115611d2657600080fd5b611d3184828561290c565b509392505050565b6000611d4c611d4784612769565b612713565b905082815260208101848484011115611d6457600080fd5b611d6f84828561290c565b509392505050565b600081359050611d8681612fee565b92915050565b600081359050611d9b81613005565b92915050565b600081359050611db08161301c565b92915050565b600081519050611dc58161301c565b92915050565b600082601f830112611ddc57600080fd5b8135611dec848260208601611cfb565b91505092915050565b600082601f830112611e0657600080fd5b8135611e16848260208601611d39565b91505092915050565b600081359050611e2e81613033565b92915050565b600060208284031215611e4657600080fd5b6000611e5484828501611d77565b91505092915050565b60008060408385031215611e7057600080fd5b6000611e7e85828601611d77565b9250506020611e8f85828601611d77565b9150509250929050565b600080600060608486031215611eae57600080fd5b6000611ebc86828701611d77565b9350506020611ecd86828701611d77565b9250506040611ede86828701611e1f565b9150509250925092565b60008060008060808587031215611efe57600080fd5b6000611f0c87828801611d77565b9450506020611f1d87828801611d77565b9350506040611f2e87828801611e1f565b925050606085013567ffffffffffffffff811115611f4b57600080fd5b611f5787828801611dcb565b91505092959194509250565b60008060408385031215611f7657600080fd5b6000611f8485828601611d77565b9250506020611f9585828601611d8c565b9150509250929050565b60008060408385031215611fb257600080fd5b6000611fc085828601611d77565b925050602083013567ffffffffffffffff811115611fdd57600080fd5b611fe985828601611df5565b9150509250929050565b6000806040838503121561200657600080fd5b600061201485828601611d77565b925050602061202585828601611e1f565b9150509250929050565b60006020828403121561204157600080fd5b600061204f84828501611da1565b91505092915050565b60006020828403121561206a57600080fd5b600061207884828501611db6565b91505092915050565b60006020828403121561209357600080fd5b60006120a184828501611e1f565b91505092915050565b6120b381612898565b82525050565b6120c2816128aa565b82525050565b60006120d38261279a565b6120dd81856127b0565b93506120ed81856020860161291b565b6120f681612ae7565b840191505092915050565b600061210c826127a5565b61211681856127c1565b935061212681856020860161291b565b61212f81612ae7565b840191505092915050565b6000612145826127a5565b61214f81856127d2565b935061215f81856020860161291b565b80840191505092915050565b60006121786032836127c1565b915061218382612af8565b604082019050919050565b600061219b6026836127c1565b91506121a682612b47565b604082019050919050565b60006121be6025836127c1565b91506121c982612b96565b604082019050919050565b60006121e1601c836127c1565b91506121ec82612be5565b602082019050919050565b60006122046024836127c1565b915061220f82612c0e565b604082019050919050565b60006122276019836127c1565b915061223282612c5d565b602082019050919050565b600061224a602c836127c1565b915061225582612c86565b604082019050919050565b600061226d6038836127c1565b915061227882612cd5565b604082019050919050565b6000612290602a836127c1565b915061229b82612d24565b604082019050919050565b60006122b36029836127c1565b91506122be82612d73565b604082019050919050565b60006122d6602e836127c1565b91506122e182612dc2565b604082019050919050565b60006122f96020836127c1565b915061230482612e11565b602082019050919050565b600061231c6031836127c1565b915061232782612e3a565b604082019050919050565b600061233f602c836127c1565b915061234a82612e89565b604082019050919050565b60006123626020836127c1565b915061236d82612ed8565b602082019050919050565b6000612385602f836127c1565b915061239082612f01565b604082019050919050565b60006123a86021836127c1565b91506123b382612f50565b604082019050919050565b60006123cb6031836127c1565b91506123d682612f9f565b604082019050919050565b6123ea81612902565b82525050565b60006123fc828561213a565b9150612408828461213a565b91508190509392505050565b600060208201905061242960008301846120aa565b92915050565b600060808201905061244460008301876120aa565b61245160208301866120aa565b61245e60408301856123e1565b818103606083015261247081846120c8565b905095945050505050565b600060208201905061249060008301846120b9565b92915050565b600060208201905081810360008301526124b08184612101565b905092915050565b600060208201905081810360008301526124d18161216b565b9050919050565b600060208201905081810360008301526124f18161218e565b9050919050565b60006020820190508181036000830152612511816121b1565b9050919050565b60006020820190508181036000830152612531816121d4565b9050919050565b60006020820190508181036000830152612551816121f7565b9050919050565b600060208201905081810360008301526125718161221a565b9050919050565b600060208201905081810360008301526125918161223d565b9050919050565b600060208201905081810360008301526125b181612260565b9050919050565b600060208201905081810360008301526125d181612283565b9050919050565b600060208201905081810360008301526125f1816122a6565b9050919050565b60006020820190508181036000830152612611816122c9565b9050919050565b60006020820190508181036000830152612631816122ec565b9050919050565b600060208201905081810360008301526126518161230f565b9050919050565b6000602082019050818103600083015261267181612332565b9050919050565b6000602082019050818103600083015261269181612355565b9050919050565b600060208201905081810360008301526126b181612378565b9050919050565b600060208201905081810360008301526126d18161239b565b9050919050565b600060208201905081810360008301526126f1816123be565b9050919050565b600060208201905061270d60008301846123e1565b92915050565b600061271d61272e565b90506127298282612980565b919050565b6000604051905090565b600067ffffffffffffffff82111561275357612752612ab8565b5b61275c82612ae7565b9050602081019050919050565b600067ffffffffffffffff82111561278457612783612ab8565b5b61278d82612ae7565b9050602081019050919050565b600081519050919050565b600081519050919050565b600082825260208201905092915050565b600082825260208201905092915050565b600081905092915050565b60006127e882612902565b91506127f383612902565b9250827fffffffffffffffffffffffffffffffffffffffffffffffffffffffffffffffff0382111561282857612827612a2b565b5b828201905092915050565b600061283e82612902565b915061284983612902565b92508261285957612858612a5a565b5b828204905092915050565b600061286f82612902565b915061287a83612902565b92508282101561288d5761288c612a2b565b5b828203905092915050565b60006128a3826128e2565b9050919050565b60008115159050919050565b60007fffffffff0000000000000000000000000000000000000000000000000000000082169050919050565b600073ffffffffffffffffffffffffffffffffffffffff82169050919050565b6000819050919050565b82818337600083830152505050565b60005b8381101561293957808201518184015260208101905061291e565b83811115612948576000848401525b50505050565b6000600282049050600182168061296657607f821691505b6020821081141561297a57612979612a89565b5b50919050565b61298982612ae7565b810181811067ffffffffffffffff821117156129a8576129a7612ab8565b5b80604052505050565b60006129bc82612902565b91507fffffffffffffffffffffffffffffffffffffffffffffffffffffffffffffffff8214156129ef576129ee612a2b565b5b600182019050919050565b6000612a0582612902565b9150612a1083612902565b925082612a2057612a1f612a5a565b5b828206905092915050565b7f4e487b7100000000000000000000000000000000000000000000000000000000600052601160045260246000fd5b7f4e487b7100000000000000000000000000000000000000000000000000000000600052601260045260246000fd5b7f4e487b7100000000000000000000000000000000000000000000000000000000600052602260045260246000fd5b7f4e487b7100000000000000000000000000000000000000000000000000000000600052604160045260246000fd5b6000601f19601f8301169050919050565b7f4552433732313a207472616e7366657220746f206e6f6e20455243373231526560008201527f63656976657220696d706c656d656e7465720000000000000000000000000000602082015250565b7f4f776e61626c653a206e6577206f776e657220697320746865207a65726f206160008201527f6464726573730000000000000000000000000000000000000000000000000000602082015250565b7f4552433732313a207472616e736665722066726f6d20696e636f72726563742060008201527f6f776e6572000000000000000000000000000000000000000000000000000000602082015250565b7f4552433732313a20746f6b656e20616c7265616479206d696e74656400000000600082015250565b7f4552433732313a207472616e7366657220746f20746865207a65726f2061646460008201527f7265737300000000000000000000000000000000000000000000000000000000602082015250565b7f4552433732313a20617070726f766520746f2063616c6c657200000000000000600082015250565b7f4552433732313a206f70657261746f7220717565727920666f72206e6f6e657860008201527f697374656e7420746f6b656e0000000000000000000000000000000000000000602082015250565b7f4552433732313a20617070726f76652063616c6c6572206973206e6f74206f7760008201527f6e6572206e6f7220617070726f76656420666f7220616c6c0000000000000000602082015250565b7f4552433732313a2062616c616e636520717565727920666f7220746865207a6560008201527f726f206164647265737300000000000000000000000000000000000000000000602082015250565b7f4552433732313a206f776e657220717565727920666f72206e6f6e657869737460008201527f656e7420746f6b656e0000000000000000000000000000000000000000000000602082015250565b7f45524337323155524953746f726167653a2055524920736574206f66206e6f6e60008201527f6578697374656e7420746f6b656e000000000000000000000000000000000000602082015250565b7f4552433732313a206d696e7420746f20746865207a65726f2061646472657373600082015250565b7f45524337323155524953746f726167653a2055524920717565727920666f722060008201527f6e6f6e6578697374656e7420746f6b656e000000000000000000000000000000602082015250565b7f4552433732313a20617070726f76656420717565727920666f72206e6f6e657860008201527f697374656e7420746f6b656e0000000000000000000000000000000000000000602082015250565b7f4f776e61626c653a2063616c6c6572206973206e6f7420746865206f776e6572600082015250565b7f4552433732314d657461646174613a2055524920717565727920666f72206e6f60008201527f6e6578697374656e7420746f6b656e0000000000000000000000000000000000602082015250565b7f4552433732313a20617070726f76616c20746f2063757272656e74206f776e6560008201527f7200000000000000000000000000000000000000000000000000000000000000602082015250565b7f4552433732313a207472616e736665722063616c6c6572206973206e6f74206f60008201527f776e6572206e6f7220617070726f766564000000000000000000000000000000602082015250565b612ff781612898565b811461300257600080fd5b50565b61300e816128aa565b811461301957600080fd5b50565b613025816128b6565b811461303057600080fd5b50565b61303c81612902565b811461304757600080fd5b5056fea26469706673582212201f0a45c206b1cf73782dc3a7d4a36513385bd62b3c28f1340e16455cd7323e9964736f6c63430008010033",
  "linkReferences": {},
  "deployedLinkReferences": {}
}