{
  "_format": "hh-sol-artifact-1",
  "contractName": "MiniNFT",
  "sourceName": "contracts/Mustache20.sol",
  "abi": [
    {
      "inputs": [],
      "stateMutability": "nonpayable",
      "type": "constructor"
    },
    {
      "anonymous": false,
      "inputs": [
        {
          "indexed": true,
          "internalType": "address",
          "name": "owner",
          "type": "address"
        },
        {
          "indexed": true,
          "internalType": "address",
          "name": "approved",
          "type": "address"
        },
        {
          "indexed": true,
          "internalType": "uint256",
          "name": "tokenId",
          "type": "uint256"
        }
      ],
      "name": "Approval",
      "type": "event"
    },
    {
      "anonymous": false,
      "inputs": [
        {
          "indexed": true,
          "internalType": "address",
          "name": "owner",
          "type": "address"
        },
        {
          "indexed": true,
          "internalType": "address",
          "name": "operator",
          "type": "address"
        },
        {
          "indexed": false,
          "internalType": "bool",
          "name": "approved",
          "type": "bool"
        }
      ],
      "name": "ApprovalForAll",
      "type": "event"
    },
    {
      "anonymous": false,
      "inputs": [
        {
          "indexed": true,
          "internalType": "address",
          "name": "previousOwner",
          "type": "address"
        },
        {
          "indexed": true,
          "internalType": "address",
          "name": "newOwner",
          "type": "address"
        }
      ],
      "name": "OwnershipTransferred",
      "type": "event"
    },
    {
      "anonymous": false,
      "inputs": [
        {
          "indexed": true,
          "internalType": "address",
          "name": "from",
          "type": "address"
        },
        {
          "indexed": true,
          "internalType": "address",
          "name": "to",
          "type": "address"
        },
        {
          "indexed": true,
          "internalType": "uint256",
          "name": "tokenId",
          "type": "uint256"
        }
      ],
      "name": "Transfer",
      "type": "event"
    },
    {
      "inputs": [
        {
          "internalType": "address",
          "name": "to",
          "type": "address"
        },
        {
          "internalType": "uint256",
          "name": "tokenId",
          "type": "uint256"
        }
      ],
      "name": "approve",
      "outputs": [],
      "stateMutability": "nonpayable",
      "type": "function"
    },
    {
      "inputs": [
        {
          "internalType": "address",
          "name": "owner",
          "type": "address"
        }
      ],
      "name": "balanceOf",
      "outputs": [
        {
          "internalType": "uint256",
          "name": "",
          "type": "uint256"
        }
      ],
      "stateMutability": "view",
      "type": "function"
    },
    {
      "inputs": [
        {
          "internalType": "uint256",
          "name": "tokenId",
          "type": "uint256"
        }
      ],
      "name": "getApproved",
      "outputs": [
        {
          "internalType": "address",
          "name": "",
          "type": "address"
        }
      ],
      "stateMutability": "view",
      "type": "function"
    },
    {
      "inputs": [
        {
          "internalType": "address",
          "name": "owner",
          "type": "address"
        },
        {
          "internalType": "address",
          "name": "operator",
          "type": "address"
        }
      ],
      "name": "isApprovedForAll",
      "outputs": [
        {
          "internalType": "bool",
          "name": "",
          "type": "bool"
        }
      ],
      "stateMutability": "view",
      "type": "function"
    },
    {
      "inputs": [
        {
          "internalType": "address",
          "name": "recipient",
          "type": "address"
        },
        {
          "internalType": "string",
          "name": "tokenURI",
          "type": "string"
        }
      ],
      "name": "mintInLoopNFT",
      "outputs": [],
      "stateMutability": "nonpayable",
      "type": "function"
    },
    {
      "inputs": [],
      "name": "name",
      "outputs": [
        {
          "internalType": "string",
          "name": "",
          "type": "string"
        }
      ],
      "stateMutability": "view",
      "type": "function"
    },
    {
      "inputs": [],
      "name": "owner",
      "outputs": [
        {
          "internalType": "address",
          "name": "",
          "type": "address"
        }
      ],
      "stateMutability": "view",
      "type": "function"
    },
    {
      "inputs": [
        {
          "internalType": "uint256",
          "name": "tokenId",
          "type": "uint256"
        }
      ],
      "name": "ownerOf",
      "outputs": [
        {
          "internalType": "address",
          "name": "",
          "type": "address"
        }
      ],
      "stateMutability": "view",
      "type": "function"
    },
    {
      "inputs": [],
      "name": "renounceOwnership",
      "outputs": [],
      "stateMutability": "nonpayable",
      "type": "function"
    },
    {
      "inputs": [
        {
          "internalType": "address",
          "name": "from",
          "type": "address"
        },
        {
          "internalType": "address",
          "name": "to",
          "type": "address"
        },
        {
          "internalType": "uint256",
          "name": "tokenId",
          "type": "uint256"
        }
      ],
      "name": "safeTransferFrom",
      "outputs": [],
      "stateMutability": "nonpayable",
      "type": "function"
    },
    {
      "inputs": [
        {
          "internalType": "address",
          "name": "from",
          "type": "address"
        },
        {
          "internalType": "address",
          "name": "to",
          "type": "address"
        },
        {
          "internalType": "uint256",
          "name": "tokenId",
          "type": "uint256"
        },
        {
          "internalType": "bytes",
          "name": "data",
          "type": "bytes"
        }
      ],
      "name": "safeTransferFrom",
      "outputs": [],
      "stateMutability": "nonpayable",
      "type": "function"
    },
    {
      "inputs": [
        {
          "internalType": "address",
          "name": "operator",
          "type": "address"
        },
        {
          "internalType": "bool",
          "name": "approved",
          "type": "bool"
        }
      ],
      "name": "setApprovalForAll",
      "outputs": [],
      "stateMutability": "nonpayable",
      "type": "function"
    },
    {
      "inputs": [
        {
          "internalType": "bytes4",
          "name": "interfaceId",
          "type": "bytes4"
        }
      ],
      "name": "supportsInterface",
      "outputs": [
        {
          "internalType": "bool",
          "name": "",
          "type": "bool"
        }
      ],
      "stateMutability": "view",
      "type": "function"
    },
    {
      "inputs": [],
      "name": "symbol",
      "outputs": [
        {
          "internalType": "string",
          "name": "",
          "type": "string"
        }
      ],
      "stateMutability": "view",
      "type": "function"
    },
    {
      "inputs": [
        {
          "internalType": "uint256",
          "name": "tokenId",
          "type": "uint256"
        }
      ],
      "name": "tokenURI",
      "outputs": [
        {
          "internalType": "string",
          "name": "",
          "type": "string"
        }
      ],
      "stateMutability": "view",
      "type": "function"
    },
    {
      "inputs": [
        {
          "internalType": "address",
          "name": "from",
          "type": "address"
        },
        {
          "internalType": "address",
          "name": "to",
          "type": "address"
        },
        {
          "internalType": "uint256",
          "name": "tokenId",
          "type": "uint256"
        }
      ],
      "name": "transferFrom",
      "outputs": [],
      "stateMutability": "nonpayable",
      "type": "function"
    },
    {
      "inputs": [
        {
          "internalType": "address",
          "name": "newOwner",
          "type": "address"
        }
      ],
      "name": "transferOwnership",
      "outputs": [],
      "stateMutability": "nonpayable",
      "type": "function"
    }
  ],
  "bytecode": "0x60806040523480156200001157600080fd5b506040518060400160405280600781526020017f4d696e694e4654000000000000000000000000000000000000000000000000008152506040518060400160405280600881526020017f4d696e69206e6674000000000000000000000000000000000000000000000000815250816000908051906020019062000096929190620001a6565b508060019080519060200190620000af929190620001a6565b505050620000d2620000c6620000d860201b60201c565b620000e060201b60201c565b620002bb565b600033905090565b6000600760009054906101000a900473ffffffffffffffffffffffffffffffffffffffff16905081600760006101000a81548173ffffffffffffffffffffffffffffffffffffffff021916908373ffffffffffffffffffffffffffffffffffffffff1602179055508173ffffffffffffffffffffffffffffffffffffffff168173ffffffffffffffffffffffffffffffffffffffff167f8be0079c531659141344cd1fd0a4f28419497f9722a3daafe3b4186f6b6457e060405160405180910390a35050565b828054620001b49062000256565b90600052602060002090601f016020900481019282620001d8576000855562000224565b82601f10620001f357805160ff191683800117855562000224565b8280016001018555821562000224579182015b828111156200022357825182559160200191906001019062000206565b5b50905062000233919062000237565b5090565b5b808211156200025257600081600090555060010162000238565b5090565b600060028204905060018216806200026f57607f821691505b602082108114156200028657620002856200028c565b5b50919050565b7f4e487b7100000000000000000000000000000000000000000000000000000000600052602260045260246000fd5b612c0580620002cb6000396000f3fe608060405234801561001057600080fd5b506004361061010b5760003560e01c8063715018a6116100a2578063a22cb46511610071578063a22cb465146102a4578063b88d4fde146102c0578063c87b56dd146102dc578063e985e9c51461030c578063f2fde38b1461033c5761010b565b8063715018a6146102425780638da5cb5b1461024c57806395d89b411461026a5780639e30e3f7146102885761010b565b806323b872dd116100de57806323b872dd146101aa57806342842e0e146101c65780636352211e146101e257806370a08231146102125761010b565b806301ffc9a71461011057806306fdde0314610140578063081812fc1461015e578063095ea7b31461018e575b600080fd5b61012a60048036038101906101259190611e22565b610358565b60405161013791906121e2565b60405180910390f35b61014861043a565b60405161015591906121fd565b60405180910390f35b61017860048036038101906101739190611e74565b6104cc565b604051610185919061217b565b60405180910390f35b6101a860048036038101906101a39190611de6565b610512565b005b6101c460048036038101906101bf9190611c8c565b61062a565b005b6101e060048036038101906101db9190611c8c565b61068a565b005b6101fc60048036038101906101f79190611e74565b6106aa565b604051610209919061217b565b60405180910390f35b61022c60048036038101906102279190611c27565b61075c565b60405161023991906123df565b60405180910390f35b61024a610814565b005b610254610828565b604051610261919061217b565b60405180910390f35b610272610852565b60405161027f91906121fd565b60405180910390f35b6102a2600480360381019061029d9190611d92565b6108e4565b005b6102be60048036038101906102b99190611d56565b61091b565b005b6102da60048036038101906102d59190611cdb565b610931565b005b6102f660048036038101906102f19190611e74565b610993565b60405161030391906121fd565b60405180910390f35b61032660048036038101906103219190611c50565b610aa6565b60405161033391906121e2565b60405180910390f35b61035660048036038101906103519190611c27565b610b3a565b005b60007f80ac58cd000000000000000000000000000000000000000000000000000000007bffffffffffffffffffffffffffffffffffffffffffffffffffffffff1916827bffffffffffffffffffffffffffffffffffffffffffffffffffffffff1916148061042357507f5b5e139f000000000000000000000000000000000000000000000000000000007bffffffffffffffffffffffffffffffffffffffffffffffffffffffff1916827bffffffffffffffffffffffffffffffffffffffffffffffffffffffff1916145b80610433575061043282610bbe565b5b9050919050565b60606000805461044990612635565b80601f016020809104026020016040519081016040528092919081815260200182805461047590612635565b80156104c25780601f10610497576101008083540402835291602001916104c2565b820191906000526020600020905b8154815290600101906020018083116104a557829003601f168201915b5050505050905090565b60006104d782610c28565b6004600083815260200190815260200160002060009054906101000a900473ffffffffffffffffffffffffffffffffffffffff169050919050565b600061051d826106aa565b90508073ffffffffffffffffffffffffffffffffffffffff168373ffffffffffffffffffffffffffffffffffffffff16141561058e576040517f08c379a00000000000000000000000000000000000000000000000000000000081526004016105859061239f565b60405180910390fd5b8073ffffffffffffffffffffffffffffffffffffffff166105ad610c73565b73ffffffffffffffffffffffffffffffffffffffff1614806105dc57506105db816105d6610c73565b610aa6565b5b61061b576040517f08c379a00000000000000000000000000000000000000000000000000000000081526004016106129061231f565b60405180910390fd5b6106258383610c7b565b505050565b61063b610635610c73565b82610d34565b61067a576040517f08c379a0000000000000000000000000000000000000000000000000000000008152600401610671906123bf565b60405180910390fd5b610685838383610dc9565b505050565b6106a583838360405180602001604052806000815250610931565b505050565b6000806002600084815260200190815260200160002060009054906101000a900473ffffffffffffffffffffffffffffffffffffffff169050600073ffffffffffffffffffffffffffffffffffffffff168173ffffffffffffffffffffffffffffffffffffffff161415610753576040517f08c379a000000000000000000000000000000000000000000000000000000000815260040161074a9061237f565b60405180910390fd5b80915050919050565b60008073ffffffffffffffffffffffffffffffffffffffff168273ffffffffffffffffffffffffffffffffffffffff1614156107cd576040517f08c379a00000000000000000000000000000000000000000000000000000000081526004016107c4906122df565b60405180910390fd5b600360008373ffffffffffffffffffffffffffffffffffffffff1673ffffffffffffffffffffffffffffffffffffffff168152602001908152602001600020549050919050565b61081c611030565b61082660006110ae565b565b6000600760009054906101000a900473ffffffffffffffffffffffffffffffffffffffff16905090565b60606001805461086190612635565b80601f016020809104026020016040519081016040528092919081815260200182805461088d90612635565b80156108da5780601f106108af576101008083540402835291602001916108da565b820191906000526020600020905b8154815290600101906020018083116108bd57829003601f168201915b5050505050905090565b6108ec611030565b60005b6014811015610916576109028383611174565b50808061090e90612698565b9150506108ef565b505050565b61092d610926610c73565b83836111b4565b5050565b61094261093c610c73565b83610d34565b610981576040517f08c379a0000000000000000000000000000000000000000000000000000000008152600401610978906123bf565b60405180910390fd5b61098d84848484611321565b50505050565b606061099e82610c28565b60006006600084815260200190815260200160002080546109be90612635565b80601f01602080910402602001604051908101604052809291908181526020018280546109ea90612635565b8015610a375780601f10610a0c57610100808354040283529160200191610a37565b820191906000526020600020905b815481529060010190602001808311610a1a57829003601f168201915b505050505090506000610a4861137d565b9050600081511415610a5e578192505050610aa1565b600082511115610a93578082604051602001610a7b929190612157565b60405160208183030381529060405292505050610aa1565b610a9c84611394565b925050505b919050565b6000600560008473ffffffffffffffffffffffffffffffffffffffff1673ffffffffffffffffffffffffffffffffffffffff16815260200190815260200160002060008373ffffffffffffffffffffffffffffffffffffffff1673ffffffffffffffffffffffffffffffffffffffff16815260200190815260200160002060009054906101000a900460ff16905092915050565b610b42611030565b600073ffffffffffffffffffffffffffffffffffffffff168173ffffffffffffffffffffffffffffffffffffffff161415610bb2576040517f08c379a0000000000000000000000000000000000000000000000000000000008152600401610ba99061223f565b60405180910390fd5b610bbb816110ae565b50565b60007f01ffc9a7000000000000000000000000000000000000000000000000000000007bffffffffffffffffffffffffffffffffffffffffffffffffffffffff1916827bffffffffffffffffffffffffffffffffffffffffffffffffffffffff1916149050919050565b610c31816113fc565b610c70576040517f08c379a0000000000000000000000000000000000000000000000000000000008152600401610c679061237f565b60405180910390fd5b50565b600033905090565b816004600083815260200190815260200160002060006101000a81548173ffffffffffffffffffffffffffffffffffffffff021916908373ffffffffffffffffffffffffffffffffffffffff160217905550808273ffffffffffffffffffffffffffffffffffffffff16610cee836106aa565b73ffffffffffffffffffffffffffffffffffffffff167f8c5be1e5ebec7d5bd14f71427d1e84f3dd0314c0f7b2291e5b200ac8c7c3b92560405160405180910390a45050565b600080610d40836106aa565b90508073ffffffffffffffffffffffffffffffffffffffff168473ffffffffffffffffffffffffffffffffffffffff161480610d825750610d818185610aa6565b5b80610dc057508373ffffffffffffffffffffffffffffffffffffffff16610da8846104cc565b73ffffffffffffffffffffffffffffffffffffffff16145b91505092915050565b8273ffffffffffffffffffffffffffffffffffffffff16610de9826106aa565b73ffffffffffffffffffffffffffffffffffffffff1614610e3f576040517f08c379a0000000000000000000000000000000000000000000000000000000008152600401610e369061225f565b60405180910390fd5b600073ffffffffffffffffffffffffffffffffffffffff168273ffffffffffffffffffffffffffffffffffffffff161415610eaf576040517f08c379a0000000000000000000000000000000000000000000000000000000008152600401610ea69061229f565b60405180910390fd5b610eba838383611468565b610ec5600082610c7b565b6001600360008573ffffffffffffffffffffffffffffffffffffffff1673ffffffffffffffffffffffffffffffffffffffff1681526020019081526020016000206000828254610f15919061254b565b925050819055506001600360008473ffffffffffffffffffffffffffffffffffffffff1673ffffffffffffffffffffffffffffffffffffffff1681526020019081526020016000206000828254610f6c91906124c4565b92505081905550816002600083815260200190815260200160002060006101000a81548173ffffffffffffffffffffffffffffffffffffffff021916908373ffffffffffffffffffffffffffffffffffffffff160217905550808273ffffffffffffffffffffffffffffffffffffffff168473ffffffffffffffffffffffffffffffffffffffff167fddf252ad1be2c89b69c2b068fc378daa952ba7f163c4a11628f55a4df523b3ef60405160405180910390a461102b83838361146d565b505050565b611038610c73565b73ffffffffffffffffffffffffffffffffffffffff16611056610828565b73ffffffffffffffffffffffffffffffffffffffff16146110ac576040517f08c379a00000000000000000000000000000000000000000000000000000000081526004016110a39061235f565b60405180910390fd5b565b6000600760009054906101000a900473ffffffffffffffffffffffffffffffffffffffff16905081600760006101000a81548173ffffffffffffffffffffffffffffffffffffffff021916908373ffffffffffffffffffffffffffffffffffffffff1602179055508173ffffffffffffffffffffffffffffffffffffffff168173ffffffffffffffffffffffffffffffffffffffff167f8be0079c531659141344cd1fd0a4f28419497f9722a3daafe3b4186f6b6457e060405160405180910390a35050565b600061117e611030565b6111886008611472565b60006111946008611488565b90506111a08482611496565b6111aa8184611670565b8091505092915050565b8173ffffffffffffffffffffffffffffffffffffffff168373ffffffffffffffffffffffffffffffffffffffff161415611223576040517f08c379a000000000000000000000000000000000000000000000000000000000815260040161121a906122bf565b60405180910390fd5b80600560008573ffffffffffffffffffffffffffffffffffffffff1673ffffffffffffffffffffffffffffffffffffffff16815260200190815260200160002060008473ffffffffffffffffffffffffffffffffffffffff1673ffffffffffffffffffffffffffffffffffffffff16815260200190815260200160002060006101000a81548160ff0219169083151502179055508173ffffffffffffffffffffffffffffffffffffffff168373ffffffffffffffffffffffffffffffffffffffff167f17307eab39ab6107e8899845ad3d59bd9653f200f220920489ca2b5937696c318360405161131491906121e2565b60405180910390a3505050565b61132c848484610dc9565b611338848484846116e4565b611377576040517f08c379a000000000000000000000000000000000000000000000000000000000815260040161136e9061221f565b60405180910390fd5b50505050565b606060405180602001604052806000815250905090565b606061139f82610c28565b60006113a961137d565b905060008151116113c957604051806020016040528060008152506113f4565b806113d38461187b565b6040516020016113e4929190612157565b6040516020818303038152906040525b915050919050565b60008073ffffffffffffffffffffffffffffffffffffffff166002600084815260200190815260200160002060009054906101000a900473ffffffffffffffffffffffffffffffffffffffff1673ffffffffffffffffffffffffffffffffffffffff1614159050919050565b505050565b505050565b6001816000016000828254019250508190555050565b600081600001549050919050565b600073ffffffffffffffffffffffffffffffffffffffff168273ffffffffffffffffffffffffffffffffffffffff161415611506576040517f08c379a00000000000000000000000000000000000000000000000000000000081526004016114fd9061233f565b60405180910390fd5b61150f816113fc565b1561154f576040517f08c379a00000000000000000000000000000000000000000000000000000000081526004016115469061227f565b60405180910390fd5b61155b60008383611468565b6001600360008473ffffffffffffffffffffffffffffffffffffffff1673ffffffffffffffffffffffffffffffffffffffff16815260200190815260200160002060008282546115ab91906124c4565b92505081905550816002600083815260200190815260200160002060006101000a81548173ffffffffffffffffffffffffffffffffffffffff021916908373ffffffffffffffffffffffffffffffffffffffff160217905550808273ffffffffffffffffffffffffffffffffffffffff16600073ffffffffffffffffffffffffffffffffffffffff167fddf252ad1be2c89b69c2b068fc378daa952ba7f163c4a11628f55a4df523b3ef60405160405180910390a461166c6000838361146d565b5050565b611679826113fc565b6116b8576040517f08c379a00000000000000000000000000000000000000000000000000000000081526004016116af906122ff565b60405180910390fd5b806006600084815260200190815260200160002090805190602001906116df929190611a4b565b505050565b60006117058473ffffffffffffffffffffffffffffffffffffffff16611a28565b1561186e578373ffffffffffffffffffffffffffffffffffffffff1663150b7a0261172e610c73565b8786866040518563ffffffff1660e01b81526004016117509493929190612196565b602060405180830381600087803b15801561176a57600080fd5b505af192505050801561179b57506040513d601f19601f820116820180604052508101906117989190611e4b565b60015b61181e573d80600081146117cb576040519150601f19603f3d011682016040523d82523d6000602084013e6117d0565b606091505b50600081511415611816576040517f08c379a000000000000000000000000000000000000000000000000000000000815260040161180d9061221f565b60405180910390fd5b805181602001fd5b63150b7a0260e01b7bffffffffffffffffffffffffffffffffffffffffffffffffffffffff1916817bffffffffffffffffffffffffffffffffffffffffffffffffffffffff191614915050611873565b600190505b949350505050565b606060008214156118c3576040518060400160405280600181526020017f30000000000000000000000000000000000000000000000000000000000000008152509050611a23565b600082905060005b600082146118f55780806118de90612698565b915050600a826118ee919061251a565b91506118cb565b60008167ffffffffffffffff811115611937577f4e487b7100000000000000000000000000000000000000000000000000000000600052604160045260246000fd5b6040519080825280601f01601f1916602001820160405280156119695781602001600182028036833780820191505090505b5090505b60008514611a1c57600182611982919061254b565b9150600a8561199191906126e1565b603061199d91906124c4565b60f81b8183815181106119d9577f4e487b7100000000000000000000000000000000000000000000000000000000600052603260045260246000fd5b60200101907effffffffffffffffffffffffffffffffffffffffffffffffffffffffffffff1916908160001a905350600a85611a15919061251a565b945061196d565b8093505050505b919050565b6000808273ffffffffffffffffffffffffffffffffffffffff163b119050919050565b828054611a5790612635565b90600052602060002090601f016020900481019282611a795760008555611ac0565b82601f10611a9257805160ff1916838001178555611ac0565b82800160010185558215611ac0579182015b82811115611abf578251825591602001919060010190611aa4565b5b509050611acd9190611ad1565b5090565b5b80821115611aea576000816000905550600101611ad2565b5090565b6000611b01611afc8461241f565b6123fa565b905082815260208101848484011115611b1957600080fd5b611b248482856125f3565b509392505050565b6000611b3f611b3a84612450565b6123fa565b905082815260208101848484011115611b5757600080fd5b611b628482856125f3565b509392505050565b600081359050611b7981612b73565b92915050565b600081359050611b8e81612b8a565b92915050565b600081359050611ba381612ba1565b92915050565b600081519050611bb881612ba1565b92915050565b600082601f830112611bcf57600080fd5b8135611bdf848260208601611aee565b91505092915050565b600082601f830112611bf957600080fd5b8135611c09848260208601611b2c565b91505092915050565b600081359050611c2181612bb8565b92915050565b600060208284031215611c3957600080fd5b6000611c4784828501611b6a565b91505092915050565b60008060408385031215611c6357600080fd5b6000611c7185828601611b6a565b9250506020611c8285828601611b6a565b9150509250929050565b600080600060608486031215611ca157600080fd5b6000611caf86828701611b6a565b9350506020611cc086828701611b6a565b9250506040611cd186828701611c12565b9150509250925092565b60008060008060808587031215611cf157600080fd5b6000611cff87828801611b6a565b9450506020611d1087828801611b6a565b9350506040611d2187828801611c12565b925050606085013567ffffffffffffffff811115611d3e57600080fd5b611d4a87828801611bbe565b91505092959194509250565b60008060408385031215611d6957600080fd5b6000611d7785828601611b6a565b9250506020611d8885828601611b7f565b9150509250929050565b60008060408385031215611da557600080fd5b6000611db385828601611b6a565b925050602083013567ffffffffffffffff811115611dd057600080fd5b611ddc85828601611be8565b9150509250929050565b60008060408385031215611df957600080fd5b6000611e0785828601611b6a565b9250506020611e1885828601611c12565b9150509250929050565b600060208284031215611e3457600080fd5b6000611e4284828501611b94565b91505092915050565b600060208284031215611e5d57600080fd5b6000611e6b84828501611ba9565b91505092915050565b600060208284031215611e8657600080fd5b6000611e9484828501611c12565b91505092915050565b611ea68161257f565b82525050565b611eb581612591565b82525050565b6000611ec682612481565b611ed08185612497565b9350611ee0818560208601612602565b611ee9816127ce565b840191505092915050565b6000611eff8261248c565b611f0981856124a8565b9350611f19818560208601612602565b611f22816127ce565b840191505092915050565b6000611f388261248c565b611f4281856124b9565b9350611f52818560208601612602565b80840191505092915050565b6000611f6b6032836124a8565b9150611f76826127df565b604082019050919050565b6000611f8e6026836124a8565b9150611f998261282e565b604082019050919050565b6000611fb16025836124a8565b9150611fbc8261287d565b604082019050919050565b6000611fd4601c836124a8565b9150611fdf826128cc565b602082019050919050565b6000611ff76024836124a8565b9150612002826128f5565b604082019050919050565b600061201a6019836124a8565b915061202582612944565b602082019050919050565b600061203d6029836124a8565b91506120488261296d565b604082019050919050565b6000612060602e836124a8565b915061206b826129bc565b604082019050919050565b6000612083603e836124a8565b915061208e82612a0b565b604082019050919050565b60006120a66020836124a8565b91506120b182612a5a565b602082019050919050565b60006120c96020836124a8565b91506120d482612a83565b602082019050919050565b60006120ec6018836124a8565b91506120f782612aac565b602082019050919050565b600061210f6021836124a8565b915061211a82612ad5565b604082019050919050565b6000612132602e836124a8565b915061213d82612b24565b604082019050919050565b612151816125e9565b82525050565b60006121638285611f2d565b915061216f8284611f2d565b91508190509392505050565b60006020820190506121906000830184611e9d565b92915050565b60006080820190506121ab6000830187611e9d565b6121b86020830186611e9d565b6121c56040830185612148565b81810360608301526121d78184611ebb565b905095945050505050565b60006020820190506121f76000830184611eac565b92915050565b600060208201905081810360008301526122178184611ef4565b905092915050565b6000602082019050818103600083015261223881611f5e565b9050919050565b6000602082019050818103600083015261225881611f81565b9050919050565b6000602082019050818103600083015261227881611fa4565b9050919050565b6000602082019050818103600083015261229881611fc7565b9050919050565b600060208201905081810360008301526122b881611fea565b9050919050565b600060208201905081810360008301526122d88161200d565b9050919050565b600060208201905081810360008301526122f881612030565b9050919050565b6000602082019050818103600083015261231881612053565b9050919050565b6000602082019050818103600083015261233881612076565b9050919050565b6000602082019050818103600083015261235881612099565b9050919050565b60006020820190508181036000830152612378816120bc565b9050919050565b60006020820190508181036000830152612398816120df565b9050919050565b600060208201905081810360008301526123b881612102565b9050919050565b600060208201905081810360008301526123d881612125565b9050919050565b60006020820190506123f46000830184612148565b92915050565b6000612404612415565b90506124108282612667565b919050565b6000604051905090565b600067ffffffffffffffff82111561243a5761243961279f565b5b612443826127ce565b9050602081019050919050565b600067ffffffffffffffff82111561246b5761246a61279f565b5b612474826127ce565b9050602081019050919050565b600081519050919050565b600081519050919050565b600082825260208201905092915050565b600082825260208201905092915050565b600081905092915050565b60006124cf826125e9565b91506124da836125e9565b9250827fffffffffffffffffffffffffffffffffffffffffffffffffffffffffffffffff0382111561250f5761250e612712565b5b828201905092915050565b6000612525826125e9565b9150612530836125e9565b9250826125405761253f612741565b5b828204905092915050565b6000612556826125e9565b9150612561836125e9565b92508282101561257457612573612712565b5b828203905092915050565b600061258a826125c9565b9050919050565b60008115159050919050565b60007fffffffff0000000000000000000000000000000000000000000000000000000082169050919050565b600073ffffffffffffffffffffffffffffffffffffffff82169050919050565b6000819050919050565b82818337600083830152505050565b60005b83811015612620578082015181840152602081019050612605565b8381111561262f576000848401525b50505050565b6000600282049050600182168061264d57607f821691505b6020821081141561266157612660612770565b5b50919050565b612670826127ce565b810181811067ffffffffffffffff8211171561268f5761268e61279f565b5b80604052505050565b60006126a3826125e9565b91507fffffffffffffffffffffffffffffffffffffffffffffffffffffffffffffffff8214156126d6576126d5612712565b5b600182019050919050565b60006126ec826125e9565b91506126f7836125e9565b92508261270757612706612741565b5b828206905092915050565b7f4e487b7100000000000000000000000000000000000000000000000000000000600052601160045260246000fd5b7f4e487b7100000000000000000000000000000000000000000000000000000000600052601260045260246000fd5b7f4e487b7100000000000000000000000000000000000000000000000000000000600052602260045260246000fd5b7f4e487b7100000000000000000000000000000000000000000000000000000000600052604160045260246000fd5b6000601f19601f8301169050919050565b7f4552433732313a207472616e7366657220746f206e6f6e20455243373231526560008201527f63656976657220696d706c656d656e7465720000000000000000000000000000602082015250565b7f4f776e61626c653a206e6577206f776e657220697320746865207a65726f206160008201527f6464726573730000000000000000000000000000000000000000000000000000602082015250565b7f4552433732313a207472616e736665722066726f6d20696e636f72726563742060008201527f6f776e6572000000000000000000000000000000000000000000000000000000602082015250565b7f4552433732313a20746f6b656e20616c7265616479206d696e74656400000000600082015250565b7f4552433732313a207472616e7366657220746f20746865207a65726f2061646460008201527f7265737300000000000000000000000000000000000000000000000000000000602082015250565b7f4552433732313a20617070726f766520746f2063616c6c657200000000000000600082015250565b7f4552433732313a2061646472657373207a65726f206973206e6f74206120766160008201527f6c6964206f776e65720000000000000000000000000000000000000000000000602082015250565b7f45524337323155524953746f726167653a2055524920736574206f66206e6f6e60008201527f6578697374656e7420746f6b656e000000000000000000000000000000000000602082015250565b7f4552433732313a20617070726f76652063616c6c6572206973206e6f7420746f60008201527f6b656e206f776e6572206e6f7220617070726f76656420666f7220616c6c0000602082015250565b7f4552433732313a206d696e7420746f20746865207a65726f2061646472657373600082015250565b7f4f776e61626c653a2063616c6c6572206973206e6f7420746865206f776e6572600082015250565b7f4552433732313a20696e76616c696420746f6b656e2049440000000000000000600082015250565b7f4552433732313a20617070726f76616c20746f2063757272656e74206f776e6560008201527f7200000000000000000000000000000000000000000000000000000000000000602082015250565b7f4552433732313a2063616c6c6572206973206e6f7420746f6b656e206f776e6560008201527f72206e6f7220617070726f766564000000000000000000000000000000000000602082015250565b612b7c8161257f565b8114612b8757600080fd5b50565b612b9381612591565b8114612b9e57600080fd5b50565b612baa8161259d565b8114612bb557600080fd5b50565b612bc1816125e9565b8114612bcc57600080fd5b5056fea2646970667358221220ecdab9a62167f2c7a9de743470c242d238cdd52743f15ec038ee5bf37172709364736f6c63430008010033",
  "linkReferences": {},
  "deployedLinkReferences": {}
}